{
  "contractName": "OriShare",
  "abi": [
    {
      "inputs": [
        {
          "internalType": "address",
          "name": "oriTokenAddress",
          "type": "address"
        }
      ],
      "stateMutability": "nonpayable",
      "type": "constructor"
    },
    {
      "anonymous": false,
      "inputs": [
        {
          "indexed": true,
          "internalType": "address",
          "name": "from",
          "type": "address"
        },
        {
          "indexed": false,
          "internalType": "uint256",
          "name": "price",
          "type": "uint256"
        },
        {
          "indexed": false,
          "internalType": "uint256",
          "name": "amount",
          "type": "uint256"
        }
      ],
      "name": "bided",
      "type": "event"
    },
    {
      "anonymous": false,
      "inputs": [
        {
          "indexed": true,
          "internalType": "address",
          "name": "from",
          "type": "address"
        },
        {
          "indexed": false,
          "internalType": "uint256",
          "name": "amount",
          "type": "uint256"
        }
      ],
      "name": "claimed",
      "type": "event"
    },
    {
      "anonymous": false,
      "inputs": [
        {
          "indexed": false,
          "internalType": "uint256",
          "name": "tax",
          "type": "uint256"
        },
        {
          "indexed": false,
          "internalType": "uint256",
          "name": "tangible",
          "type": "uint256"
        },
        {
          "indexed": false,
          "internalType": "uint256",
          "name": "contribution",
          "type": "uint256"
        }
      ],
      "name": "dd",
      "type": "event"
    },
    {
      "anonymous": false,
      "inputs": [
        {
          "indexed": true,
          "internalType": "address",
          "name": "from",
          "type": "address"
        },
        {
          "indexed": true,
          "internalType": "address",
          "name": "to",
          "type": "address"
        },
        {
          "indexed": false,
          "internalType": "uint256",
          "name": "share",
          "type": "uint256"
        }
      ],
      "name": "swapped",
      "type": "event"
    },
    {
      "inputs": [
        {
          "internalType": "uint256",
          "name": "amount",
          "type": "uint256"
        }
      ],
      "name": "initalize",
      "outputs": [
        {
          "internalType": "bool",
          "name": "",
          "type": "bool"
        }
      ],
      "stateMutability": "nonpayable",
      "type": "function"
    },
    {
      "inputs": [
        {
          "internalType": "uint256",
          "name": "price",
          "type": "uint256"
        },
        {
          "internalType": "uint256",
          "name": "amount",
          "type": "uint256"
        }
      ],
      "name": "bid",
      "outputs": [
        {
          "internalType": "bool",
          "name": "",
          "type": "bool"
        }
      ],
      "stateMutability": "nonpayable",
      "type": "function"
    },
    {
      "inputs": [],
      "name": "cancel",
      "outputs": [
        {
          "internalType": "bool",
          "name": "",
          "type": "bool"
        }
      ],
      "stateMutability": "nonpayable",
      "type": "function"
    },
    {
      "inputs": [
        {
          "internalType": "address",
          "name": "bidder",
          "type": "address"
        },
        {
          "internalType": "uint256",
          "name": "amount",
          "type": "uint256"
        }
      ],
      "name": "accept",
      "outputs": [
        {
          "internalType": "bool",
          "name": "",
          "type": "bool"
        }
      ],
      "stateMutability": "nonpayable",
      "type": "function"
    },
    {
      "inputs": [
        {
          "internalType": "address",
          "name": "_tangibleAddress",
          "type": "address"
        }
      ],
      "name": "setTangible",
      "outputs": [
        {
          "internalType": "bool",
          "name": "",
          "type": "bool"
        }
      ],
      "stateMutability": "nonpayable",
      "type": "function"
    },
    {
      "inputs": [
        {
          "internalType": "uint256",
          "name": "amount",
          "type": "uint256"
        }
      ],
      "name": "disburse",
      "outputs": [
        {
          "internalType": "bool",
          "name": "",
          "type": "bool"
        }
      ],
      "stateMutability": "nonpayable",
      "type": "function"
    },
    {
      "inputs": [],
      "name": "terminate",
      "outputs": [
        {
          "internalType": "bool",
          "name": "",
          "type": "bool"
        }
      ],
      "stateMutability": "nonpayable",
      "type": "function"
    },
    {
      "inputs": [],
      "name": "getOffers",
      "outputs": [
        {
          "components": [
            {
              "internalType": "uint256",
              "name": "price",
              "type": "uint256"
            },
            {
              "internalType": "uint256",
              "name": "amount",
              "type": "uint256"
            },
            {
              "internalType": "address",
              "name": "from",
              "type": "address"
            },
            {
              "internalType": "uint256",
              "name": "escrow",
              "type": "uint256"
            }
          ],
          "internalType": "struct OriShare.Offer[]",
          "name": "",
          "type": "tuple[]"
        }
      ],
      "stateMutability": "view",
      "type": "function"
    },
    {
      "inputs": [
        {
          "internalType": "address",
          "name": "_owner",
          "type": "address"
        }
      ],
      "name": "getShare",
      "outputs": [
        {
          "internalType": "uint256",
          "name": "",
          "type": "uint256"
        }
      ],
      "stateMutability": "view",
      "type": "function"
    },
    {
      "inputs": [],
      "name": "getBalance",
      "outputs": [
        {
          "internalType": "uint256",
          "name": "",
          "type": "uint256"
        }
      ],
      "stateMutability": "view",
      "type": "function"
    },
    {
      "inputs": [],
      "name": "getPrice",
      "outputs": [
        {
          "internalType": "uint256",
          "name": "",
          "type": "uint256"
        }
      ],
      "stateMutability": "view",
      "type": "function"
    },
    {
      "inputs": [],
      "name": "getInitialValue",
      "outputs": [
        {
          "internalType": "uint256",
          "name": "",
          "type": "uint256"
        }
      ],
      "stateMutability": "view",
      "type": "function"
    },
    {
      "inputs": [],
      "name": "getShareholders",
      "outputs": [
        {
          "internalType": "address[]",
          "name": "",
          "type": "address[]"
        }
      ],
      "stateMutability": "view",
      "type": "function"
    }
  ],
  "bytecode": "0x60806040526000600160146101000a81548160ff0219169083151502179055506000600160156101000a81548160ff02191690831515021790555060006002553480156200004c57600080fd5b50604051620034e7380380620034e7833981810160405281019062000072919062000111565b33600160006101000a81548173ffffffffffffffffffffffffffffffffffffffff021916908373ffffffffffffffffffffffffffffffffffffffff160217905550806000806101000a81548173ffffffffffffffffffffffffffffffffffffffff021916908373ffffffffffffffffffffffffffffffffffffffff160217905550506200018b565b6000815190506200010b8162000171565b92915050565b6000602082840312156200012457600080fd5b60006200013484828501620000fa565b91505092915050565b60006200014a8262000151565b9050919050565b600073ffffffffffffffffffffffffffffffffffffffff82169050919050565b6200017c816200013d565b81146200018857600080fd5b50565b61334c806200019b6000396000f3fe608060405234801561001057600080fd5b50600436106100cf5760003560e01c806398d5fdca1161008c578063cd67571c11610066578063cd67571c1461022a578063ea8a1af01461025a578063ed8a64ff14610278578063f9bee22514610296576100cf565b806398d5fdca146101ac57806399eb6603146101ca578063bd77ac2c146101fa576100cf565b80630c08bf88146100d457806312065fe0146100f25780633ee992ee1461011057806341ca641e1461012e5780634b3ab9c51461014c578063598647f81461017c575b600080fd5b6100dc6102c6565b6040516100e99190612c5c565b60405180910390f35b6100fa6108a4565b6040516101079190612df7565b60405180910390f35b6101186108ae565b6040516101259190612c3a565b60405180910390f35b610136610aca565b6040516101439190612c18565b60405180910390f35b61016660048036038101906101619190612743565b610b58565b6040516101739190612df7565b60405180910390f35b61019660048036038101906101919190612823565b610ba1565b6040516101a39190612c5c565b60405180910390f35b6101b4610ff1565b6040516101c19190612df7565b60405180910390f35b6101e460048036038101906101df91906127d1565b611007565b6040516101f19190612c5c565b60405180910390f35b610214600480360381019061020f91906127d1565b611320565b6040516102219190612c5c565b60405180910390f35b610244600480360381019061023f919061276c565b611670565b6040516102519190612c5c565b60405180910390f35b610262611b83565b60405161026f9190612c5c565b60405180910390f35b610280611e69565b60405161028d9190612df7565b60405180910390f35b6102b060048036038101906102ab9190612743565b611e73565b6040516102bd9190612c5c565b60405180910390f35b6000600160159054906101000a900460ff16610317576040517f08c379a000000000000000000000000000000000000000000000000000000000815260040161030e90612d77565b60405180910390fd5b600160149054906101000a900460ff1615610367576040517f08c379a000000000000000000000000000000000000000000000000000000000815260040161035e90612c97565b60405180910390fd5b3373ffffffffffffffffffffffffffffffffffffffff16600160009054906101000a900473ffffffffffffffffffffffffffffffffffffffff1673ffffffffffffffffffffffffffffffffffffffff16146103f7576040517f08c379a00000000000000000000000000000000000000000000000000000000081526004016103ee90612dd7565b60405180910390fd5b6000610401610ff1565b905060005b6009805490508110156105e65760008054906101000a900473ffffffffffffffffffffffffffffffffffffffff1673ffffffffffffffffffffffffffffffffffffffff1663a9059cbb60098381548110610489577f4e487b7100000000000000000000000000000000000000000000000000000000600052603260045260246000fd5b9060005260206000200160009054906101000a900473ffffffffffffffffffffffffffffffffffffffff168460086000600987815481106104f3577f4e487b7100000000000000000000000000000000000000000000000000000000600052603260045260246000fd5b9060005260206000200160009054906101000a900473ffffffffffffffffffffffffffffffffffffffff1673ffffffffffffffffffffffffffffffffffffffff1673ffffffffffffffffffffffffffffffffffffffff168152602001908152602001600020546105639190612f1c565b6040518363ffffffff1660e01b8152600401610580929190612bef565b602060405180830381600087803b15801561059a57600080fd5b505af11580156105ae573d6000803e3d6000fd5b505050506040513d601f19601f820116820180604052508101906105d291906127a8565b5080806105de90612ff2565b915050610406565b5060005b6006805490508110156108815760008054906101000a900473ffffffffffffffffffffffffffffffffffffffff1673ffffffffffffffffffffffffffffffffffffffff1663a9059cbb6006838154811061066d577f4e487b7100000000000000000000000000000000000000000000000000000000600052603260045260246000fd5b9060005260206000200160009054906101000a900473ffffffffffffffffffffffffffffffffffffffff1660056000600686815481106106d6577f4e487b7100000000000000000000000000000000000000000000000000000000600052603260045260246000fd5b9060005260206000200160009054906101000a900473ffffffffffffffffffffffffffffffffffffffff1673ffffffffffffffffffffffffffffffffffffffff1673ffffffffffffffffffffffffffffffffffffffff168152602001908152602001600020600301546040518363ffffffff1660e01b815260040161075c929190612bef565b602060405180830381600087803b15801561077657600080fd5b505af115801561078a573d6000803e3d6000fd5b505050506040513d601f19601f820116820180604052508101906107ae91906127a8565b5060056000600683815481106107ed577f4e487b7100000000000000000000000000000000000000000000000000000000600052603260045260246000fd5b9060005260206000200160009054906101000a900473ffffffffffffffffffffffffffffffffffffffff1673ffffffffffffffffffffffffffffffffffffffff1673ffffffffffffffffffffffffffffffffffffffff16815260200190815260200160002060030154600760008282546108679190612f76565b92505081905550808061087990612ff2565b9150506105ea565b5060018060146101000a81548160ff021916908315150217905550600191505090565b6000600454905090565b6060600060068054905067ffffffffffffffff8111156108f7577f4e487b7100000000000000000000000000000000000000000000000000000000600052604160045260246000fd5b60405190808252806020026020018201604052801561093057816020015b61091d6126b1565b8152602001906001900390816109155790505b50905060005b600680549050811015610ac25760006005600060068481548110610983577f4e487b7100000000000000000000000000000000000000000000000000000000600052603260045260246000fd5b9060005260206000200160009054906101000a900473ffffffffffffffffffffffffffffffffffffffff1673ffffffffffffffffffffffffffffffffffffffff1673ffffffffffffffffffffffffffffffffffffffff16815260200190815260200160002060405180608001604052908160008201548152602001600182015481526020016002820160009054906101000a900473ffffffffffffffffffffffffffffffffffffffff1673ffffffffffffffffffffffffffffffffffffffff1673ffffffffffffffffffffffffffffffffffffffff168152602001600382015481525050905080838381518110610aa3577f4e487b7100000000000000000000000000000000000000000000000000000000600052603260045260246000fd5b6020026020010181905250508080610aba90612ff2565b915050610936565b508091505090565b60606009805480602002602001604051908101604052809291908181526020018280548015610b4e57602002820191906000526020600020905b8160009054906101000a900473ffffffffffffffffffffffffffffffffffffffff1673ffffffffffffffffffffffffffffffffffffffff1681526020019060010190808311610b04575b5050505050905090565b6000600860008373ffffffffffffffffffffffffffffffffffffffff1673ffffffffffffffffffffffffffffffffffffffff168152602001908152602001600020549050919050565b6000600160159054906101000a900460ff16610bf2576040517f08c379a0000000000000000000000000000000000000000000000000000000008152600401610be990612d77565b60405180910390fd5b600160149054906101000a900460ff1615610c42576040517f08c379a0000000000000000000000000000000000000000000000000000000008152600401610c3990612c97565b60405180910390fd5b60008211610c85576040517f08c379a0000000000000000000000000000000000000000000000000000000008152600401610c7c90612d97565b60405180910390fd5b60008284610c939190612f1c565b90506064600a82610ca49190612f1c565b610cae9190612eeb565b81610cb99190612e95565b90508060008054906101000a900473ffffffffffffffffffffffffffffffffffffffff1673ffffffffffffffffffffffffffffffffffffffff1663dd62ed3e610d00611f4f565b306040518363ffffffff1660e01b8152600401610d1e929190612b8f565b60206040518083038186803b158015610d3657600080fd5b505afa158015610d4a573d6000803e3d6000fd5b505050506040513d601f19601f82011682018060405250810190610d6e91906127fa565b1015610daf576040517f08c379a0000000000000000000000000000000000000000000000000000000008152600401610da690612d17565b60405180910390fd5b60006040518060800160405280868152602001858152602001610dd0611f4f565b73ffffffffffffffffffffffffffffffffffffffff1681526020018381525090508060056000610dfe611f4f565b73ffffffffffffffffffffffffffffffffffffffff1673ffffffffffffffffffffffffffffffffffffffff168152602001908152602001600020600082015181600001556020820151816001015560408201518160020160006101000a81548173ffffffffffffffffffffffffffffffffffffffff021916908373ffffffffffffffffffffffffffffffffffffffff160217905550606082015181600301559050506006610eaa611f4f565b9080600181540180825580915050600190039060005260206000200160009091909190916101000a81548173ffffffffffffffffffffffffffffffffffffffff021916908373ffffffffffffffffffffffffffffffffffffffff16021790555060008054906101000a900473ffffffffffffffffffffffffffffffffffffffff1673ffffffffffffffffffffffffffffffffffffffff166323b872dd610f4e611f4f565b30856040518463ffffffff1660e01b8152600401610f6e93929190612bb8565b602060405180830381600087803b158015610f8857600080fd5b505af1158015610f9c573d6000803e3d6000fd5b505050506040513d601f19601f82011682018060405250810190610fc091906127a8565b508385610fcd9190612f1c565b60076000828254610fde9190612e95565b9250508190555060019250505092915050565b600060646004546110029190612eeb565b905090565b6000600160159054906101000a900460ff1615611059576040517f08c379a000000000000000000000000000000000000000000000000000000000815260040161105090612cf7565b60405180910390fd5b600073ffffffffffffffffffffffffffffffffffffffff16600360009054906101000a900473ffffffffffffffffffffffffffffffffffffffff1673ffffffffffffffffffffffffffffffffffffffff1614156110eb576040517f08c379a00000000000000000000000000000000000000000000000000000000081526004016110e290612cd7565b60405180910390fd5b6110f3611f4f565b73ffffffffffffffffffffffffffffffffffffffff16600160009054906101000a900473ffffffffffffffffffffffffffffffffffffffff1673ffffffffffffffffffffffffffffffffffffffff1614611182576040517f08c379a000000000000000000000000000000000000000000000000000000000815260040161117990612d57565b60405180910390fd5b60008054906101000a900473ffffffffffffffffffffffffffffffffffffffff1673ffffffffffffffffffffffffffffffffffffffff166323b872dd6111c6611f4f565b30856040518463ffffffff1660e01b81526004016111e693929190612bb8565b602060405180830381600087803b15801561120057600080fd5b505af1158015611214573d6000803e3d6000fd5b505050506040513d601f19601f8201168201806040525081019061123891906127a8565b5081600481905550816002819055506009611251611f4f565b9080600181540180825580915050600190039060005260206000200160009091909190916101000a81548173ffffffffffffffffffffffffffffffffffffffff021916908373ffffffffffffffffffffffffffffffffffffffff1602179055506064600860006112bf611f4f565b73ffffffffffffffffffffffffffffffffffffffff1673ffffffffffffffffffffffffffffffffffffffff1681526020019081526020016000208190555060018060156101000a81548160ff02191690831515021790555060019050919050565b6000600160159054906101000a900460ff16611371576040517f08c379a000000000000000000000000000000000000000000000000000000000815260040161136890612d77565b60405180910390fd5b600160149054906101000a900460ff16156113c1576040517f08c379a00000000000000000000000000000000000000000000000000000000081526004016113b890612c97565b60405180910390fd5b600160159054906101000a900460ff16611410576040517f08c379a000000000000000000000000000000000000000000000000000000000815260040161140790612d77565b60405180910390fd5b600160149054906101000a900460ff1615611460576040517f08c379a000000000000000000000000000000000000000000000000000000000815260040161145790612cb7565b60405180910390fd5b600082116114a3576040517f08c379a000000000000000000000000000000000000000000000000000000000815260040161149a90612d97565b60405180910390fd5b8160008054906101000a900473ffffffffffffffffffffffffffffffffffffffff1673ffffffffffffffffffffffffffffffffffffffff1663dd62ed3e6114e8611f4f565b306040518363ffffffff1660e01b8152600401611506929190612b8f565b60206040518083038186803b15801561151e57600080fd5b505afa158015611532573d6000803e3d6000fd5b505050506040513d601f19601f8201168201806040525081019061155691906127fa565b1015611597576040517f08c379a000000000000000000000000000000000000000000000000000000000815260040161158e90612d17565b60405180910390fd5b60008054906101000a900473ffffffffffffffffffffffffffffffffffffffff1673ffffffffffffffffffffffffffffffffffffffff166323b872dd6115db611f4f565b30856040518463ffffffff1660e01b81526004016115fb93929190612bb8565b602060405180830381600087803b15801561161557600080fd5b505af1158015611629573d6000803e3d6000fd5b505050506040513d601f19601f8201168201806040525081019061164d91906127a8565b5081600460008282546116609190612e95565b9250508190555060019050919050565b6000600160159054906101000a900460ff166116c1576040517f08c379a00000000000000000000000000000000000000000000000000000000081526004016116b890612d77565b60405180910390fd5b600160149054906101000a900460ff1615611711576040517f08c379a000000000000000000000000000000000000000000000000000000000815260040161170890612c97565b60405180910390fd5b600082118015611722575060648211155b611761576040517f08c379a000000000000000000000000000000000000000000000000000000000815260040161175890612d97565b60405180910390fd5b6000600560008573ffffffffffffffffffffffffffffffffffffffff1673ffffffffffffffffffffffffffffffffffffffff16815260200190815260200160002060405180608001604052908160008201548152602001600182015481526020016002820160009054906101000a900473ffffffffffffffffffffffffffffffffffffffff1673ffffffffffffffffffffffffffffffffffffffff1673ffffffffffffffffffffffffffffffffffffffff168152602001600382015481525050905060008160000151846118359190612f1c565b905060006064600a836118489190612f1c565b6118529190612eeb565b905060006064603260646118669190612f76565b836118719190612f1c565b61187b9190612eeb565b90506000818361188b9190612f76565b905082846118999190612e95565b600560008a73ffffffffffffffffffffffffffffffffffffffff1673ffffffffffffffffffffffffffffffffffffffff16815260200190815260200160002060030160008282546118ea9190612f76565b9250508190555060008054906101000a900473ffffffffffffffffffffffffffffffffffffffff1673ffffffffffffffffffffffffffffffffffffffff1663a9059cbb600360009054906101000a900473ffffffffffffffffffffffffffffffffffffffff16846040518363ffffffff1660e01b815260040161196e929190612bef565b602060405180830381600087803b15801561198857600080fd5b505af115801561199c573d6000803e3d6000fd5b505050506040513d601f19601f820116820180604052508101906119c091906127a8565b5080600460008282546119d39190612e95565b9250508190555086600860006119e7611f4f565b73ffffffffffffffffffffffffffffffffffffffff1673ffffffffffffffffffffffffffffffffffffffff1681526020019081526020016000206000828254611a309190612f76565b9250508190555060008054906101000a900473ffffffffffffffffffffffffffffffffffffffff1673ffffffffffffffffffffffffffffffffffffffff1663a9059cbb611a7b611f4f565b866040518363ffffffff1660e01b8152600401611a99929190612bef565b602060405180830381600087803b158015611ab357600080fd5b505af1158015611ac7573d6000803e3d6000fd5b505050506040513d601f19601f82011682018060405250810190611aeb91906127a8565b50611afe88611af8611f4f565b89611f57565b611b08888861235c565b611b10611f4f565b73ffffffffffffffffffffffffffffffffffffffff168873ffffffffffffffffffffffffffffffffffffffff167f54445d9be7f7ec3692e5471a5c037b41185bd6ccfa8c29053e1e180ac459bd4489604051611b6c9190612df7565b60405180910390a360019550505050505092915050565b6000600160159054906101000a900460ff16611bd4576040517f08c379a0000000000000000000000000000000000000000000000000000000008152600401611bcb90612d77565b60405180910390fd5b600160149054906101000a900460ff1615611c24576040517f08c379a0000000000000000000000000000000000000000000000000000000008152600401611c1b90612c97565b60405180910390fd5b600060056000611c32611f4f565b73ffffffffffffffffffffffffffffffffffffffff1673ffffffffffffffffffffffffffffffffffffffff1681526020019081526020016000206003015411611cb0576040517f08c379a0000000000000000000000000000000000000000000000000000000008152600401611ca790612c77565b60405180910390fd5b600060056000611cbe611f4f565b73ffffffffffffffffffffffffffffffffffffffff1673ffffffffffffffffffffffffffffffffffffffff16815260200190815260200160002060405180608001604052908160008201548152602001600182015481526020016002820160009054906101000a900473ffffffffffffffffffffffffffffffffffffffff1673ffffffffffffffffffffffffffffffffffffffff1673ffffffffffffffffffffffffffffffffffffffff168152602001600382015481525050905060008054906101000a900473ffffffffffffffffffffffffffffffffffffffff1673ffffffffffffffffffffffffffffffffffffffff1663a9059cbb611dbd611f4f565b83606001516040518363ffffffff1660e01b8152600401611ddf929190612bef565b602060405180830381600087803b158015611df957600080fd5b505af1158015611e0d573d6000803e3d6000fd5b505050506040513d601f19601f82011682018060405250810190611e3191906127a8565b50806060015160076000828254611e489190612f76565b92505081905550611e61611e5a611f4f565b600061235c565b600191505090565b6000600254905090565b60003373ffffffffffffffffffffffffffffffffffffffff16600160009054906101000a900473ffffffffffffffffffffffffffffffffffffffff1673ffffffffffffffffffffffffffffffffffffffff1614611f05576040517f08c379a0000000000000000000000000000000000000000000000000000000008152600401611efc90612db7565b60405180910390fd5b81600360006101000a81548173ffffffffffffffffffffffffffffffffffffffff021916908373ffffffffffffffffffffffffffffffffffffffff16021790555060019050919050565b600033905090565b6000805b600980549050811015612018578473ffffffffffffffffffffffffffffffffffffffff1660098281548110611fb9577f4e487b7100000000000000000000000000000000000000000000000000000000600052603260045260246000fd5b9060005260206000200160009054906101000a900473ffffffffffffffffffffffffffffffffffffffff1673ffffffffffffffffffffffffffffffffffffffff1614806120035750815b9150808061201090612ff2565b915050611f5b565b5080612082576009849080600181540180825580915050600190039060005260206000200160009091909190916101000a81548173ffffffffffffffffffffffffffffffffffffffff021916908373ffffffffffffffffffffffffffffffffffffffff1602179055505b81600860008673ffffffffffffffffffffffffffffffffffffffff1673ffffffffffffffffffffffffffffffffffffffff16815260200190815260200160002060008282546120d19190612e95565b925050819055506000600860006120e6611f4f565b73ffffffffffffffffffffffffffffffffffffffff1673ffffffffffffffffffffffffffffffffffffffff168152602001908152602001600020541415612356576000805b6009805490508110156121ee57612140611f4f565b73ffffffffffffffffffffffffffffffffffffffff1660098281548110612190577f4e487b7100000000000000000000000000000000000000000000000000000000600052603260045260246000fd5b9060005260206000200160009054906101000a900473ffffffffffffffffffffffffffffffffffffffff1673ffffffffffffffffffffffffffffffffffffffff1614156121db578091505b80806121e690612ff2565b91505061212b565b50600960016009805490506122039190612f76565b8154811061223a577f4e487b7100000000000000000000000000000000000000000000000000000000600052603260045260246000fd5b9060005260206000200160009054906101000a900473ffffffffffffffffffffffffffffffffffffffff166009828154811061229f577f4e487b7100000000000000000000000000000000000000000000000000000000600052603260045260246000fd5b9060005260206000200160006101000a81548173ffffffffffffffffffffffffffffffffffffffff021916908373ffffffffffffffffffffffffffffffffffffffff160217905550600980548061231f577f4e487b7100000000000000000000000000000000000000000000000000000000600052603160045260246000fd5b6001900381819060005260206000200160006101000a81549073ffffffffffffffffffffffffffffffffffffffff02191690559055505b50505050565b80600560008473ffffffffffffffffffffffffffffffffffffffff1673ffffffffffffffffffffffffffffffffffffffff1681526020019081526020016000206001015410156123e1576040517f08c379a00000000000000000000000000000000000000000000000000000000081526004016123d890612d37565b60405180910390fd5b80600560008473ffffffffffffffffffffffffffffffffffffffff1673ffffffffffffffffffffffffffffffffffffffff16815260200190815260200160002060010160008282546124339190612f76565b925050819055506000600560008473ffffffffffffffffffffffffffffffffffffffff1673ffffffffffffffffffffffffffffffffffffffff1681526020019081526020016000206001015414156126ad576000805b600680549050811015612545578373ffffffffffffffffffffffffffffffffffffffff16600682815481106124e7577f4e487b7100000000000000000000000000000000000000000000000000000000600052603260045260246000fd5b9060005260206000200160009054906101000a900473ffffffffffffffffffffffffffffffffffffffff1673ffffffffffffffffffffffffffffffffffffffff161415612532578091505b808061253d90612ff2565b915050612489565b506006600160068054905061255a9190612f76565b81548110612591577f4e487b7100000000000000000000000000000000000000000000000000000000600052603260045260246000fd5b9060005260206000200160009054906101000a900473ffffffffffffffffffffffffffffffffffffffff16600682815481106125f6577f4e487b7100000000000000000000000000000000000000000000000000000000600052603260045260246000fd5b9060005260206000200160006101000a81548173ffffffffffffffffffffffffffffffffffffffff021916908373ffffffffffffffffffffffffffffffffffffffff1602179055506006805480612676577f4e487b7100000000000000000000000000000000000000000000000000000000600052603160045260246000fd5b6001900381819060005260206000200160006101000a81549073ffffffffffffffffffffffffffffffffffffffff02191690559055505b5050565b60405180608001604052806000815260200160008152602001600073ffffffffffffffffffffffffffffffffffffffff168152602001600081525090565b6000813590506126fe816132d1565b92915050565b600081519050612713816132e8565b92915050565b600081359050612728816132ff565b92915050565b60008151905061273d816132ff565b92915050565b60006020828403121561275557600080fd5b6000612763848285016126ef565b91505092915050565b6000806040838503121561277f57600080fd5b600061278d858286016126ef565b925050602061279e85828601612719565b9150509250929050565b6000602082840312156127ba57600080fd5b60006127c884828501612704565b91505092915050565b6000602082840312156127e357600080fd5b60006127f184828501612719565b91505092915050565b60006020828403121561280c57600080fd5b600061281a8482850161272e565b91505092915050565b6000806040838503121561283657600080fd5b600061284485828601612719565b925050602061285585828601612719565b9150509250929050565b600061286b838361288f565b60208301905092915050565b60006128838383612b1c565b60808301905092915050565b61289881612faa565b82525050565b6128a781612faa565b82525050565b60006128b882612e32565b6128c28185612e62565b93506128cd83612e12565b8060005b838110156128fe5781516128e5888261285f565b97506128f083612e48565b9250506001810190506128d1565b5085935050505092915050565b600061291682612e3d565b6129208185612e73565b935061292b83612e22565b8060005b8381101561295c5781516129438882612877565b975061294e83612e55565b92505060018101905061292f565b5085935050505092915050565b61297281612fbc565b82525050565b6000612985600b83612e84565b915061299082613099565b602082019050919050565b60006129a8601783612e84565b91506129b3826130c2565b602082019050919050565b60006129cb601483612e84565b91506129d6826130eb565b602082019050919050565b60006129ee602183612e84565b91506129f982613114565b604082019050919050565b6000612a11601c83612e84565b9150612a1c82613163565b602082019050919050565b6000612a34601f83612e84565b9150612a3f8261318c565b602082019050919050565b6000612a57601283612e84565b9150612a62826131b5565b602082019050919050565b6000612a7a602283612e84565b9150612a85826131de565b604082019050919050565b6000612a9d601c83612e84565b9150612aa88261322d565b602082019050919050565b6000612ac0601783612e84565b9150612acb82613256565b602082019050919050565b6000612ae3601b83612e84565b9150612aee8261327f565b602082019050919050565b6000612b06601883612e84565b9150612b11826132a8565b602082019050919050565b608082016000820151612b326000850182612b71565b506020820151612b456020850182612b71565b506040820151612b58604085018261288f565b506060820151612b6b6060850182612b71565b50505050565b612b7a81612fe8565b82525050565b612b8981612fe8565b82525050565b6000604082019050612ba4600083018561289e565b612bb1602083018461289e565b9392505050565b6000606082019050612bcd600083018661289e565b612bda602083018561289e565b612be76040830184612b80565b949350505050565b6000604082019050612c04600083018561289e565b612c116020830184612b80565b9392505050565b60006020820190508181036000830152612c3281846128ad565b905092915050565b60006020820190508181036000830152612c54818461290b565b905092915050565b6000602082019050612c716000830184612969565b92915050565b60006020820190508181036000830152612c9081612978565b9050919050565b60006020820190508181036000830152612cb08161299b565b9050919050565b60006020820190508181036000830152612cd0816129be565b9050919050565b60006020820190508181036000830152612cf0816129e1565b9050919050565b60006020820190508181036000830152612d1081612a04565b9050919050565b60006020820190508181036000830152612d3081612a27565b9050919050565b60006020820190508181036000830152612d5081612a4a565b9050919050565b60006020820190508181036000830152612d7081612a6d565b9050919050565b60006020820190508181036000830152612d9081612a90565b9050919050565b60006020820190508181036000830152612db081612ab3565b9050919050565b60006020820190508181036000830152612dd081612ad6565b9050919050565b60006020820190508181036000830152612df081612af9565b9050919050565b6000602082019050612e0c6000830184612b80565b92915050565b6000819050602082019050919050565b6000819050602082019050919050565b600081519050919050565b600081519050919050565b6000602082019050919050565b6000602082019050919050565b600082825260208201905092915050565b600082825260208201905092915050565b600082825260208201905092915050565b6000612ea082612fe8565b9150612eab83612fe8565b9250827fffffffffffffffffffffffffffffffffffffffffffffffffffffffffffffffff03821115612ee057612edf61303b565b5b828201905092915050565b6000612ef682612fe8565b9150612f0183612fe8565b925082612f1157612f1061306a565b5b828204905092915050565b6000612f2782612fe8565b9150612f3283612fe8565b9250817fffffffffffffffffffffffffffffffffffffffffffffffffffffffffffffffff0483118215151615612f6b57612f6a61303b565b5b828202905092915050565b6000612f8182612fe8565b9150612f8c83612fe8565b925082821015612f9f57612f9e61303b565b5b828203905092915050565b6000612fb582612fc8565b9050919050565b60008115159050919050565b600073ffffffffffffffffffffffffffffffffffffffff82169050919050565b6000819050919050565b6000612ffd82612fe8565b91507fffffffffffffffffffffffffffffffffffffffffffffffffffffffffffffffff8214156130305761302f61303b565b5b600182019050919050565b7f4e487b7100000000000000000000000000000000000000000000000000000000600052601160045260246000fd5b7f4e487b7100000000000000000000000000000000000000000000000000000000600052601260045260246000fd5b7f4e6f206f70656e20626964000000000000000000000000000000000000000000600082015250565b7f54616e6769626c6520776173207465726d696e61746564000000000000000000600082015250565b7f536861726520776173207465726d696e61746564000000000000000000000000600082015250565b7f506c65617365207365742074616e6769626c652061646472657373206669727360008201527f7400000000000000000000000000000000000000000000000000000000000000602082015250565b7f54616e6769626c6520616c726561647920696e697469616c697a656400000000600082015250565b7f496e73756666696369656e7420616c6c6f77616e63652070726f766964656400600082015250565b7f496e73756666696369656e742066756e64730000000000000000000000000000600082015250565b7f4f6e6c79206f776e65722063616e20696e6974616c697a652074616e6769626c60008201527f6573000000000000000000000000000000000000000000000000000000000000602082015250565b7f54616e6769626c6520776173206e6f7420696e697469616c697a656400000000600082015250565b7f496e76616c696420616d6f756e742070726f7669646564000000000000000000600082015250565b7f4f6e6c79206f776e65722063616e207365742054616e6769626c650000000000600082015250565b7f4f6e6c79206f776e65722063616e207465726d696e6174650000000000000000600082015250565b6132da81612faa565b81146132e557600080fd5b50565b6132f181612fbc565b81146132fc57600080fd5b50565b61330881612fe8565b811461331357600080fd5b5056fea26469706673582212207dd4101c1bb16990bff5622f8b47a290aad04b1a8b677740c076082d2006427b64736f6c63430008040033",
  "immutableReferences": {},
  "source": "// SPDX-License-Identifier: MIT\npragma solidity ^0.8.4;\n\nimport \"./SafeMath.sol\";\nimport \"./OriToken.sol\";\nimport \"./TangibleStakeToken.sol\";\n\n// HNK Orijent 1919 - $ORI - Shared Invest Contract\n// This Contract is Investment Model 1\ncontract OriShare is TangibleStakeToken {\n\n\t// When an shareholder exchanged his shares\n\tevent swapped(address indexed from, address indexed to, uint256 share);\n\n\t// When new bid was submitted and awaits acceptance\n\tevent bided(address indexed from, uint256 price, uint256 amount);\n\n\t// Claim\n\tevent claimed(address indexed from, uint256 amount);\n\n\tevent dd(uint256 tax, uint256 tangible, uint256 contribution);\n\n\t// reference to deployed $OIR contract\n\tOriToken internal _ori;\n\n\t// Owner of the contract (for admin controls)\n\taddress owner;\n\n\t// contract was terminated and can't be used anymore\n\tbool terminated = false;\n\n\t// initialized\n\tbool initialized = false;\n\n\t// initial value\n\tuint256 initialValue = 0;\n\n\t// Shares contributed to the player\n\tuint constant tangibleTax = 10;\n\tuint constant contributionTax = 50;\n\n\t// Address of the tangible\n\taddress tangibleAddress;\n\n\t// Total balance (locked in $ORI)\n\tuint256 balance;\n\n\t// Offers\n\tstruct Offer {\n\t\tuint256 price;\n\t\tuint256 amount;\n\t\taddress from;\n\t\tuint256 escrow;\n\t}\n\tmapping (address => Offer) openOffers;\n\taddress[] openBidders;\n\tuint256 escrow;\n\n\t// Stakes\n\tmapping (address => uint256) shares;\n\taddress[] shareholders;\n\n\t// Set owner and DI OriToken\n\tconstructor(address oriTokenAddress) public {\n\t\towner = msg.sender;\n\t\t_ori = OriToken(oriTokenAddress);\n\t}\n\n\t// ----------------------------------------------------------------------------------------------------------\n\t// ----------------------------------------------- MODIFIERS ------------------------------------------------\n\t// ----------------------------------------------------------------------------------------------------------\n\n\t/**\n    *  Verify tangible is active and initialized\n    *\n    */\n\tmodifier _isActive() {\n\t\trequire(initialized, 'Tangible was not initialized');\n\t\trequire(!terminated, 'Tangible was terminated');\n\t\t_;\n\t}\n\n\t// ----------------------------------------------------------------------------------------------------------\n\t// ------------------------------------------------ INTERNAL ------------------------------------------------\n\t// ----------------------------------------------------------------------------------------------------------\n\n\t/**\n    *  Update stored offers, if offer was spend, remove from list\n    *\n    */\n\tfunction updateOffers(address bidder, uint256 amount) internal {\n\t\trequire(openOffers[bidder].amount >= amount, \"Insufficient funds\");\n\n\t\topenOffers[bidder].amount -= amount;\n\t\t//require(openOffers[bidder].escrow != 0, 'Escrow leftover');\n\t\tif (openOffers[bidder].amount == 0){\n\t\t\tuint256 index = 0;\n\t\t\tfor(uint256 i=0;i<openBidders.length;i++){\n\t\t\t\tif (openBidders[i] == bidder)\n\t\t\t\t\tindex = i;\n\t\t\t}\n\t\t\topenBidders[index] = openBidders[openBidders.length-1];\n\t\t\topenBidders.pop();\n\t\t}\n\t}\n\n\tfunction updateShares(address bidder, address from, uint256 amount) internal {\n\t\t// add new owner\n\t\tbool found = false;\n\t\tfor(uint256 i=0;i<shareholders.length;i++)\n\t\t\tfound = shareholders[i] == bidder || found;\n\t\tif (!found)\n\t\t\tshareholders.push(bidder);\n\t\tshares[bidder] += amount;\n\n\t\t// update from\n\t\tif (shares[_msgSender()] == 0){\n\t\t\tuint256 index = 0;\n\t\t\tfor(uint256 i=0;i<shareholders.length;i++){\n\t\t\t\tif (shareholders[i] == _msgSender())\n\t\t\t\t\tindex = i;\n\t\t\t}\n\t\t\tshareholders[index] = shareholders[shareholders.length-1];\n\t\t\tshareholders.pop();\n\t\t}\n\t}\n\n\t// Safe access to msg.sender\n\tfunction _msgSender() internal view virtual returns (address) {\n\t\treturn msg.sender;\n\t}\n\n\t// ----------------------------------------------------------------------------------------------------------\n\t// ------------------------------------------------- PUBLIC -------------------------------------------------\n\t// ----------------------------------------------------------------------------------------------------------\n\n\tfunction initalize(uint256 amount) public returns (bool){\n\t\trequire(!initialized, 'Tangible already initialized');\n\t\trequire(tangibleAddress != address(0), 'Please set tangible address first');\n\t\trequire(owner == _msgSender(), 'Only owner can initalize tangibles');\n\n\t\t// transfer funds\n\t\t_ori.transferFrom(_msgSender(), address(this), amount);\n\t\tbalance = amount;\n\t\tinitialValue = amount;\n\n\t\tshareholders.push(_msgSender());\n\t\tshares[_msgSender()] = 100;\n\n\t\t// start bidding\n\t\tinitialized = true;\n\n\t\treturn true;\n\t}\n\n\t// Bid for shares\n\tfunction bid(uint256 price, uint256 amount) public virtual override _isActive() returns (bool) {\n\t\trequire(amount > 0, 'Invalid amount provided');\n\n\t\t// add tax to escrow\n\t\tuint256 _escrow = price * amount;\n\t\t_escrow += (_escrow * tangibleTax) / 100;\n\n\t\t// check if enough escrow allowed\n\t\trequire(_ori.allowance(_msgSender(), address(this)) >= _escrow, 'Insufficient allowance provided');\n\n\t\t// store bid\n\t\tOffer memory offer = Offer(price, amount, _msgSender(), _escrow);\n\t\topenOffers[_msgSender()] = offer;\n\t\topenBidders.push(_msgSender());\n\n\t\t// pull escrow\n\t\t_ori.transferFrom(_msgSender(), address(this), _escrow);\n\t\tescrow += price * amount;\n\n\t\treturn true;\n\t}\n\n\t// Cancel bid (offer) and return escrow\n\tfunction cancel() public virtual override _isActive() returns (bool) {\n\t\trequire(openOffers[_msgSender()].escrow > 0, 'No open bid');\n\n\t\tOffer memory offer = openOffers[_msgSender()];\n\n\t\t// return escrow leftover\n\t\t_ori.transfer(_msgSender(), offer.escrow);\n\t\tescrow -= offer.escrow;\n\n\t\tupdateOffers(_msgSender(), 0);\n\n\t\treturn true;\n\t}\n\n\t// Accept bid and sell shares\n\tfunction accept(address bidder, uint256 amount) public _isActive() returns (bool) {\n\t\trequire(amount > 0 && amount <= 100, 'Invalid amount provided');\n\n\t\tOffer memory _offer = openOffers[bidder];\n\t\tuint256 totalCost = amount * _offer.price;\n\n\t\t// calculate taxes\n\t\tuint256 tax = (totalCost * tangibleTax) / 100;\n\t\tuint256 tangible = (tax * (100-contributionTax)) / 100;\n\t\tuint256 contribution = tax - tangible;\n\n\t\t// update offer\n\t\topenOffers[bidder].escrow -= totalCost + tax;\n\n\t\t// pay tangible\n\t\t_ori.transfer(tangibleAddress, tangible);\n\t\t// add contribution to balance\n\t\tbalance += contribution;\n\t\t// take shares from owner\n\t\tshares[_msgSender()] -= amount;\n\t\t// transfer funds\n\t\t_ori.transfer(_msgSender(), totalCost);\n\n\t\t// add or extend new shareholder\n\t\tupdateShares(bidder, _msgSender(), amount);\n\t\t// update _offer\n\t\tupdateOffers(bidder, amount);\n\n\t\temit swapped(bidder, _msgSender(), amount);\n\n\t\treturn true;\n\t}\n\n\t// Set the tangible address (for emergency, if player wallet spoofed)\n\tfunction setTangible(address _tangibleAddress) public returns (bool) {\n\t\trequire(owner == msg.sender, 'Only owner can set Tangible');\n\n\t\ttangibleAddress = _tangibleAddress;\n\t\treturn true;\n\t}\n\n\t// Used to add value to tangible\n\tfunction disburse(uint256 amount) public _isActive() returns (bool){\n\t\trequire(initialized, 'Tangible was not initialized');\n\t\trequire(!terminated, 'Share was terminated');\n\t\trequire(amount > 0, 'Invalid amount provided');\n\n\t\t// check if enough escrow allowed\n\t\trequire(_ori.allowance(_msgSender(), address(this)) >= amount, 'Insufficient allowance provided');\n\n\t\t// pull escrow\n\t\t_ori.transferFrom(_msgSender(), address(this), amount);\n\t\tbalance += amount;\n\n\t\treturn true;\n\t}\n\n\t// Terminate this contract, and pay-out all remaining investors\n\tfunction terminate() public override _isActive() returns (bool) {\n\t\trequire(owner == msg.sender, 'Only owner can terminate');\n\n\t\tuint256 price = getPrice();\n\n\t\t// transfer to all their shares\n\t\tfor(uint256 i=0;i<shareholders.length;i++)\n\t\t\t_ori.transfer(shareholders[i], shares[shareholders[i]] * price);\n\n\t\t// cancel bids\n\t\tfor(uint256 i=0;i<openBidders.length;i++){\n\t\t\t_ori.transfer(openBidders[i], openOffers[openBidders[i]].escrow);\n\t\t\tescrow -=  openOffers[openBidders[i]].escrow;\n\t\t\t//updateOffers(_msgSender(), 0);\n\t\t}\n\n\t\tterminated = true;\n\n\t\treturn true;\n\t}\n\n\t// Get offers (open)\n\tfunction getOffers() public view returns (Offer[] memory) {\n\t\tOffer[] memory offers = new Offer[](openBidders.length);\n\n\t\tfor(uint256 i=0;i<openBidders.length;i++){\n\t\t\tOffer memory offer = openOffers[openBidders[i]];\n\t\t\toffers[i] = offer;\n\t\t}\n\n\t\treturn offers;\n\t}\n\n\t// Get shares of one investor\n\tfunction getShare(address _owner) public view returns (uint256) {\n\t\treturn shares[_owner];\n\t}\n\n\t// Get total balance of locked $ORI\n\tfunction getBalance() public view returns (uint256) {\n\t\treturn balance;\n\t}\n\n\t// Return current price\n\tfunction getPrice() public view returns (uint256) {\n\t\treturn balance / 100;\n\t}\n\n\tfunction getInitialValue() public view returns (uint256){\n\t\treturn initialValue;\n\t}\n\n\t// Get shareholder addresses\n\tfunction getShareholders() public view returns (address[] memory) {\n\t\treturn shareholders;\n\t}\n\n}\n",
  "sourcePath": "/Users/michaelhasler/development/tst-basic/contracts/OriShare.sol",
  "compiler": {
    "name": "solc",
    "version": "0.8.4+commit.c7e474f2.Emscripten.clang"
  },
  "schemaVersion": "3.4.4",
  "updatedAt": "2022-03-13T10:12:07.340Z",
  "devdoc": {
    "kind": "dev",
    "methods": {},
    "version": 1
  },
  "userdoc": {
    "kind": "user",
    "methods": {},
    "version": 1
  }
}