{
  "contractName": "OriShare",
  "abi": [
    {
      "inputs": [
        {
          "internalType": "address",
          "name": "oriTokenAddress",
          "type": "address"
        }
      ],
      "stateMutability": "nonpayable",
      "type": "constructor"
    },
    {
      "inputs": [],
      "name": "initalize",
      "outputs": [
        {
          "internalType": "bool",
          "name": "",
          "type": "bool"
        }
      ],
      "stateMutability": "nonpayable",
      "type": "function"
    },
    {
      "inputs": [
        {
          "internalType": "address",
          "name": "_tangibleAddress",
          "type": "address"
        }
      ],
      "name": "setTangible",
      "outputs": [
        {
          "internalType": "bool",
          "name": "",
          "type": "bool"
        }
      ],
      "stateMutability": "nonpayable",
      "type": "function"
    },
    {
      "inputs": [
        {
          "internalType": "uint256",
          "name": "amount",
          "type": "uint256"
        }
      ],
      "name": "purchase",
      "outputs": [
        {
          "internalType": "uint256",
          "name": "",
          "type": "uint256"
        }
      ],
      "stateMutability": "nonpayable",
      "type": "function"
    },
    {
      "inputs": [],
      "name": "claim",
      "outputs": [
        {
          "internalType": "uint256",
          "name": "",
          "type": "uint256"
        }
      ],
      "stateMutability": "nonpayable",
      "type": "function"
    },
    {
      "inputs": [
        {
          "internalType": "uint256",
          "name": "amount",
          "type": "uint256"
        }
      ],
      "name": "disburse",
      "outputs": [
        {
          "internalType": "bool",
          "name": "",
          "type": "bool"
        }
      ],
      "stateMutability": "nonpayable",
      "type": "function"
    },
    {
      "inputs": [],
      "name": "terminate",
      "outputs": [
        {
          "internalType": "bool",
          "name": "",
          "type": "bool"
        }
      ],
      "stateMutability": "nonpayable",
      "type": "function"
    },
    {
      "inputs": [
        {
          "internalType": "address",
          "name": "_owner",
          "type": "address"
        }
      ],
      "name": "sharesOf",
      "outputs": [
        {
          "internalType": "uint256",
          "name": "",
          "type": "uint256"
        }
      ],
      "stateMutability": "view",
      "type": "function"
    },
    {
      "inputs": [
        {
          "internalType": "address",
          "name": "_owner",
          "type": "address"
        }
      ],
      "name": "virtualSharesOf",
      "outputs": [
        {
          "internalType": "uint256",
          "name": "",
          "type": "uint256"
        }
      ],
      "stateMutability": "view",
      "type": "function"
    },
    {
      "inputs": [
        {
          "internalType": "address",
          "name": "_owner",
          "type": "address"
        }
      ],
      "name": "balanceOf",
      "outputs": [
        {
          "internalType": "uint256",
          "name": "",
          "type": "uint256"
        }
      ],
      "stateMutability": "view",
      "type": "function"
    },
    {
      "inputs": [],
      "name": "getBalance",
      "outputs": [
        {
          "internalType": "uint256",
          "name": "",
          "type": "uint256"
        }
      ],
      "stateMutability": "view",
      "type": "function"
    },
    {
      "inputs": [],
      "name": "getVirtualBalance",
      "outputs": [
        {
          "internalType": "uint256",
          "name": "",
          "type": "uint256"
        }
      ],
      "stateMutability": "view",
      "type": "function"
    },
    {
      "inputs": [],
      "name": "getPrice",
      "outputs": [
        {
          "internalType": "uint256",
          "name": "",
          "type": "uint256"
        }
      ],
      "stateMutability": "view",
      "type": "function"
    },
    {
      "inputs": [],
      "name": "getShareholders",
      "outputs": [
        {
          "internalType": "address[]",
          "name": "",
          "type": "address[]"
        }
      ],
      "stateMutability": "view",
      "type": "function"
    }
  ],
  "bytecode": "0x60806040526000600160146101000a81548160ff0219169083151502179055506000600160156101000a81548160ff021916908315150217905550600060035560006004553480156200005157600080fd5b50604051620021153803806200211583398181016040528101906200007791906200012d565b620000876200010e60201b60201c565b600160006101000a81548173ffffffffffffffffffffffffffffffffffffffff021916908373ffffffffffffffffffffffffffffffffffffffff160217905550806000806101000a81548173ffffffffffffffffffffffffffffffffffffffff021916908373ffffffffffffffffffffffffffffffffffffffff16021790555050620001a7565b600033905090565b60008151905062000127816200018d565b92915050565b6000602082840312156200014057600080fd5b6000620001508482850162000116565b91505092915050565b600062000166826200016d565b9050919050565b600073ffffffffffffffffffffffffffffffffffffffff82169050919050565b620001988162000159565b8114620001a457600080fd5b50565b611f5e80620001b76000396000f3fe608060405234801561001057600080fd5b50600436106100cf5760003560e01c806398d5fdca1161008c578063ea114d1d11610066578063ea114d1d14610218578063efef39a114610236578063f5eb42dc14610266578063f9bee22514610296576100cf565b806398d5fdca1461019a578063bd77ac2c146101b8578063cfe6621e146101e8576100cf565b80630c08bf88146100d457806312065fe0146100f257806341ca641e146101105780634e71d92d1461012e57806370a082311461014c57806371845bb01461017c575b600080fd5b6100dc6102c6565b6040516100e99190611939565b60405180910390f35b6100fa610418565b6040516101079190611a94565b60405180910390f35b610118610422565b6040516101259190611917565b60405180910390f35b6101366104b0565b6040516101439190611a94565b60405180910390f35b610166600480360381019061016191906115da565b61099c565b6040516101739190611a94565b60405180910390f35b6101846109c9565b6040516101919190611939565b60405180910390f35b6101a2610b65565b6040516101af9190611a94565b60405180910390f35b6101d260048036038101906101cd919061162c565b610b7b565b6040516101df9190611939565b60405180910390f35b61020260048036038101906101fd91906115da565b610e2c565b60405161020f9190611a94565b60405180910390f35b610220610e75565b60405161022d9190611a94565b60405180910390f35b610250600480360381019061024b919061162c565b610e7f565b60405161025d9190611a94565b60405180910390f35b610280600480360381019061027b91906115da565b61143e565b60405161028d9190611a94565b60405180910390f35b6102b060048036038101906102ab91906115da565b6114a2565b6040516102bd9190611939565b60405180910390f35b6000600160159054906101000a900460ff16610317576040517f08c379a000000000000000000000000000000000000000000000000000000000815260040161030e90611a14565b60405180910390fd5b600160149054906101000a900460ff1615610367576040517f08c379a000000000000000000000000000000000000000000000000000000000815260040161035e90611954565b60405180910390fd5b3373ffffffffffffffffffffffffffffffffffffffff16600160009054906101000a900473ffffffffffffffffffffffffffffffffffffffff1673ffffffffffffffffffffffffffffffffffffffff16146103f7576040517f08c379a00000000000000000000000000000000000000000000000000000000081526004016103ee90611a74565b60405180910390fd5b60018060146101000a81548160ff0219169083151502179055506001905090565b6000600354905090565b606060068054806020026020016040519081016040528092919081815260200182805480156104a657602002820191906000526020600020905b8160009054906101000a900473ffffffffffffffffffffffffffffffffffffffff1673ffffffffffffffffffffffffffffffffffffffff168152602001906001019080831161045c575b5050505050905090565b6000600160159054906101000a900460ff16610501576040517f08c379a00000000000000000000000000000000000000000000000000000000081526004016104f890611a14565b60405180910390fd5b600160149054906101000a900460ff1615610551576040517f08c379a000000000000000000000000000000000000000000000000000000000815260040161054890611954565b60405180910390fd5b60006005600061055f61157e565b73ffffffffffffffffffffffffffffffffffffffff1673ffffffffffffffffffffffffffffffffffffffff16815260200190815260200160002054116105da576040517f08c379a00000000000000000000000000000000000000000000000000000000081526004016105d190611994565b60405180910390fd5b60006105ec6105e761157e565b61099c565b9050600560006105fa61157e565b73ffffffffffffffffffffffffffffffffffffffff1673ffffffffffffffffffffffffffffffffffffffff16815260200190815260200160002054600460008282546106469190611bda565b92505081905550806003600082825461065f9190611bda565b9250508190555060008054906101000a900473ffffffffffffffffffffffffffffffffffffffff1673ffffffffffffffffffffffffffffffffffffffff1663a9059cbb6106aa61157e565b836040518363ffffffff1660e01b81526004016106c89291906118ee565b602060405180830381600087803b1580156106e257600080fd5b505af11580156106f6573d6000803e3d6000fd5b505050506040513d601f19601f8201168201806040525081019061071a9190611603565b5060006005600061072961157e565b73ffffffffffffffffffffffffffffffffffffffff1673ffffffffffffffffffffffffffffffffffffffff168152602001908152602001600020819055506000805b60068054905081101561082e5761078061157e565b73ffffffffffffffffffffffffffffffffffffffff16600682815481106107d0577f4e487b7100000000000000000000000000000000000000000000000000000000600052603260045260246000fd5b9060005260206000200160009054906101000a900473ffffffffffffffffffffffffffffffffffffffff1673ffffffffffffffffffffffffffffffffffffffff16141561081b578091505b808061082690611c56565b91505061076b565b50600660016006805490506108439190611bda565b8154811061087a577f4e487b7100000000000000000000000000000000000000000000000000000000600052603260045260246000fd5b9060005260206000200160009054906101000a900473ffffffffffffffffffffffffffffffffffffffff16600682815481106108df577f4e487b7100000000000000000000000000000000000000000000000000000000600052603260045260246000fd5b9060005260206000200160006101000a81548173ffffffffffffffffffffffffffffffffffffffff021916908373ffffffffffffffffffffffffffffffffffffffff160217905550600680548061095f577f4e487b7100000000000000000000000000000000000000000000000000000000600052603160045260246000fd5b6001900381819060005260206000200160006101000a81549073ffffffffffffffffffffffffffffffffffffffff02191690559055819250505090565b6000620186a06003546109ae8461143e565b6109b89190611b80565b6109c29190611b4f565b9050919050565b6000600160159054906101000a900460ff1615610a1b576040517f08c379a0000000000000000000000000000000000000000000000000000000008152600401610a12906119b4565b60405180910390fd5b600073ffffffffffffffffffffffffffffffffffffffff16600260009054906101000a900473ffffffffffffffffffffffffffffffffffffffff1673ffffffffffffffffffffffffffffffffffffffff161415610aad576040517f08c379a0000000000000000000000000000000000000000000000000000000008152600401610aa490611974565b60405180910390fd5b610ab561157e565b73ffffffffffffffffffffffffffffffffffffffff16600160009054906101000a900473ffffffffffffffffffffffffffffffffffffffff1673ffffffffffffffffffffffffffffffffffffffff1614610b44576040517f08c379a0000000000000000000000000000000000000000000000000000000008152600401610b3b906119f4565b60405180910390fd5b60018060156101000a81548160ff0219169083151502179055506001905090565b60006064600354610b769190611b4f565b905090565b6000600160159054906101000a900460ff16610bcc576040517f08c379a0000000000000000000000000000000000000000000000000000000008152600401610bc390611a14565b60405180910390fd5b600160149054906101000a900460ff1615610c1c576040517f08c379a0000000000000000000000000000000000000000000000000000000008152600401610c1390611954565b60405180910390fd5b60008211610c5f576040517f08c379a0000000000000000000000000000000000000000000000000000000008152600401610c5690611a34565b60405180910390fd5b8160008054906101000a900473ffffffffffffffffffffffffffffffffffffffff1673ffffffffffffffffffffffffffffffffffffffff1663dd62ed3e610ca461157e565b306040518363ffffffff1660e01b8152600401610cc292919061188e565b60206040518083038186803b158015610cda57600080fd5b505afa158015610cee573d6000803e3d6000fd5b505050506040513d601f19601f82011682018060405250810190610d129190611655565b1015610d53576040517f08c379a0000000000000000000000000000000000000000000000000000000008152600401610d4a906119d4565b60405180910390fd5b60008054906101000a900473ffffffffffffffffffffffffffffffffffffffff1673ffffffffffffffffffffffffffffffffffffffff166323b872dd610d9761157e565b30856040518463ffffffff1660e01b8152600401610db7939291906118b7565b602060405180830381600087803b158015610dd157600080fd5b505af1158015610de5573d6000803e3d6000fd5b505050506040513d601f19601f82011682018060405250810190610e099190611603565b508160036000828254610e1c9190611af9565b9250508190555060019050919050565b6000600560008373ffffffffffffffffffffffffffffffffffffffff1673ffffffffffffffffffffffffffffffffffffffff168152602001908152602001600020549050919050565b6000600454905090565b6000600160159054906101000a900460ff16610ed0576040517f08c379a0000000000000000000000000000000000000000000000000000000008152600401610ec790611a14565b60405180910390fd5b600160149054906101000a900460ff1615610f20576040517f08c379a0000000000000000000000000000000000000000000000000000000008152600401610f1790611954565b60405180910390fd5b620f42408211610f65576040517f08c379a0000000000000000000000000000000000000000000000000000000008152600401610f5c90611a34565b60405180910390fd5b8160008054906101000a900473ffffffffffffffffffffffffffffffffffffffff1673ffffffffffffffffffffffffffffffffffffffff1663dd62ed3e610faa61157e565b306040518363ffffffff1660e01b8152600401610fc892919061188e565b60206040518083038186803b158015610fe057600080fd5b505afa158015610ff4573d6000803e3d6000fd5b505050506040513d601f19601f820116820180604052508101906110189190611655565b1015611059576040517f08c379a0000000000000000000000000000000000000000000000000000000008152600401611050906119d4565b60405180910390fd5b60006064600a8461106a9190611b80565b6110749190611b4f565b905060006002826110859190611b4f565b9050600082856110959190611bda565b9050600081905060006003541461110757600083876003546110b79190611af9565b6110c19190611bda565b620f4240846110d09190611b80565b6110da9190611b4f565b905080620f42406110eb9190611bda565b600454826110f99190611b80565b6111039190611b4f565b9150505b82866111139190611bda565b600360008282546111249190611af9565b92505081905550806004600082825461113d9190611af9565b9250508190555060006005600061115261157e565b73ffffffffffffffffffffffffffffffffffffffff1673ffffffffffffffffffffffffffffffffffffffff16815260200190815260200160002054141561124d5780600560006111a061157e565b73ffffffffffffffffffffffffffffffffffffffff1673ffffffffffffffffffffffffffffffffffffffff1681526020019081526020016000208190555060066111e861157e565b9080600181540180825580915050600190039060005260206000200160009091909190916101000a81548173ffffffffffffffffffffffffffffffffffffffff021916908373ffffffffffffffffffffffffffffffffffffffff1602179055506112ab565b806005600061125a61157e565b73ffffffffffffffffffffffffffffffffffffffff1673ffffffffffffffffffffffffffffffffffffffff16815260200190815260200160002060008282546112a39190611af9565b925050819055505b60008054906101000a900473ffffffffffffffffffffffffffffffffffffffff1673ffffffffffffffffffffffffffffffffffffffff166323b872dd6112ef61157e565b30896040518463ffffffff1660e01b815260040161130f939291906118b7565b602060405180830381600087803b15801561132957600080fd5b505af115801561133d573d6000803e3d6000fd5b505050506040513d601f19601f820116820180604052508101906113619190611603565b5060008054906101000a900473ffffffffffffffffffffffffffffffffffffffff1673ffffffffffffffffffffffffffffffffffffffff1663a9059cbb600260009054906101000a900473ffffffffffffffffffffffffffffffffffffffff16856040518363ffffffff1660e01b81526004016113df9291906118ee565b602060405180830381600087803b1580156113f957600080fd5b505af115801561140d573d6000803e3d6000fd5b505050506040513d601f19601f820116820180604052508101906114319190611603565b5080945050505050919050565b6000600454620186a0600560008573ffffffffffffffffffffffffffffffffffffffff1673ffffffffffffffffffffffffffffffffffffffff168152602001908152602001600020546114919190611b80565b61149b9190611b4f565b9050919050565b60003373ffffffffffffffffffffffffffffffffffffffff16600160009054906101000a900473ffffffffffffffffffffffffffffffffffffffff1673ffffffffffffffffffffffffffffffffffffffff1614611534576040517f08c379a000000000000000000000000000000000000000000000000000000000815260040161152b90611a54565b60405180910390fd5b81600260006101000a81548173ffffffffffffffffffffffffffffffffffffffff021916908373ffffffffffffffffffffffffffffffffffffffff16021790555060019050919050565b600033905090565b60008135905061159581611ee3565b92915050565b6000815190506115aa81611efa565b92915050565b6000813590506115bf81611f11565b92915050565b6000815190506115d481611f11565b92915050565b6000602082840312156115ec57600080fd5b60006115fa84828501611586565b91505092915050565b60006020828403121561161557600080fd5b60006116238482850161159b565b91505092915050565b60006020828403121561163e57600080fd5b600061164c848285016115b0565b91505092915050565b60006020828403121561166757600080fd5b6000611675848285016115c5565b91505092915050565b600061168a8383611696565b60208301905092915050565b61169f81611c0e565b82525050565b6116ae81611c0e565b82525050565b60006116bf82611abf565b6116c98185611ad7565b93506116d483611aaf565b8060005b838110156117055781516116ec888261167e565b97506116f783611aca565b9250506001810190506116d8565b5085935050505092915050565b61171b81611c20565b82525050565b600061172e601783611ae8565b915061173982611cfd565b602082019050919050565b6000611751602183611ae8565b915061175c82611d26565b604082019050919050565b6000611774600983611ae8565b915061177f82611d75565b602082019050919050565b6000611797601c83611ae8565b91506117a282611d9e565b602082019050919050565b60006117ba601f83611ae8565b91506117c582611dc7565b602082019050919050565b60006117dd602283611ae8565b91506117e882611df0565b604082019050919050565b6000611800601c83611ae8565b915061180b82611e3f565b602082019050919050565b6000611823601783611ae8565b915061182e82611e68565b602082019050919050565b6000611846601b83611ae8565b915061185182611e91565b602082019050919050565b6000611869601883611ae8565b915061187482611eba565b602082019050919050565b61188881611c4c565b82525050565b60006040820190506118a360008301856116a5565b6118b060208301846116a5565b9392505050565b60006060820190506118cc60008301866116a5565b6118d960208301856116a5565b6118e6604083018461187f565b949350505050565b600060408201905061190360008301856116a5565b611910602083018461187f565b9392505050565b6000602082019050818103600083015261193181846116b4565b905092915050565b600060208201905061194e6000830184611712565b92915050565b6000602082019050818103600083015261196d81611721565b9050919050565b6000602082019050818103600083015261198d81611744565b9050919050565b600060208201905081810360008301526119ad81611767565b9050919050565b600060208201905081810360008301526119cd8161178a565b9050919050565b600060208201905081810360008301526119ed816117ad565b9050919050565b60006020820190508181036000830152611a0d816117d0565b9050919050565b60006020820190508181036000830152611a2d816117f3565b9050919050565b60006020820190508181036000830152611a4d81611816565b9050919050565b60006020820190508181036000830152611a6d81611839565b9050919050565b60006020820190508181036000830152611a8d8161185c565b9050919050565b6000602082019050611aa9600083018461187f565b92915050565b6000819050602082019050919050565b600081519050919050565b6000602082019050919050565b600082825260208201905092915050565b600082825260208201905092915050565b6000611b0482611c4c565b9150611b0f83611c4c565b9250827fffffffffffffffffffffffffffffffffffffffffffffffffffffffffffffffff03821115611b4457611b43611c9f565b5b828201905092915050565b6000611b5a82611c4c565b9150611b6583611c4c565b925082611b7557611b74611cce565b5b828204905092915050565b6000611b8b82611c4c565b9150611b9683611c4c565b9250817fffffffffffffffffffffffffffffffffffffffffffffffffffffffffffffffff0483118215151615611bcf57611bce611c9f565b5b828202905092915050565b6000611be582611c4c565b9150611bf083611c4c565b925082821015611c0357611c02611c9f565b5b828203905092915050565b6000611c1982611c2c565b9050919050565b60008115159050919050565b600073ffffffffffffffffffffffffffffffffffffffff82169050919050565b6000819050919050565b6000611c6182611c4c565b91507fffffffffffffffffffffffffffffffffffffffffffffffffffffffffffffffff821415611c9457611c93611c9f565b5b600182019050919050565b7f4e487b7100000000000000000000000000000000000000000000000000000000600052601160045260246000fd5b7f4e487b7100000000000000000000000000000000000000000000000000000000600052601260045260246000fd5b7f54616e6769626c6520776173207465726d696e61746564000000000000000000600082015250565b7f506c65617365207365742074616e6769626c652061646472657373206669727360008201527f7400000000000000000000000000000000000000000000000000000000000000602082015250565b7f4e6f207368617265730000000000000000000000000000000000000000000000600082015250565b7f54616e6769626c6520616c726561647920696e697469616c697a656400000000600082015250565b7f496e73756666696369656e7420616c6c6f77616e63652070726f766964656400600082015250565b7f4f6e6c79206f776e65722063616e20696e6974616c697a652074616e6769626c60008201527f6573000000000000000000000000000000000000000000000000000000000000602082015250565b7f54616e6769626c6520776173206e6f7420696e697469616c697a656400000000600082015250565b7f496e76616c696420616d6f756e742070726f7669646564000000000000000000600082015250565b7f4f6e6c79206f776e65722063616e207365742054616e6769626c650000000000600082015250565b7f4f6e6c79206f776e65722063616e207465726d696e6174650000000000000000600082015250565b611eec81611c0e565b8114611ef757600080fd5b50565b611f0381611c20565b8114611f0e57600080fd5b50565b611f1a81611c4c565b8114611f2557600080fd5b5056fea2646970667358221220c4a5fa866a5b69b137041e76c331f1257f6c5609533f8a70c8ff013c82a6fa7164736f6c63430008040033",
  "immutableReferences": {},
  "source": "// SPDX-License-Identifier: MIT\npragma solidity ^0.8.4;\n\nimport \"./OriToken.sol\";\nimport \"./TangibleStakeToken.sol\";\n\n// HNK Orijent 1919 - $ORI - Shared Invest Contract\n// This Contract is Investment Model 1\ncontract OriShare {\n\n\t// reference to deployed $OIR contract\n\tOriToken internal _ori;\n\n\t// Owner of the contract (for admin controls)\n\taddress private owner;\n\n\t// contract was terminated and can't be used anymore\n\tbool private terminated = false;\n\n\t// initialized\n\tbool private initialized = false;\n\n\t// Shares contributed to the tangible\n\tuint constant tangibleTax = 10;\n\tuint constant contributionFactor = 2;\n\n\t// Address of the tangible\n\taddress private tangibleAddress;\n\n\t// Total balance (locked in $ORI)\n\tuint256 private balance = 0;\n\t// Virtual balance\n\tuint256 private virtualBalance = 0;\n\n\t// Stakes\n\tmapping (address => uint256) private shares;\n\taddress[] private shareholders;\n\n\t// Set owner and DI OriToken\n\tconstructor(address oriTokenAddress) {\n\t\towner = _msgSender();\n\t\t_ori = OriToken(oriTokenAddress);\n\t}\n\n\t// ----------------------------------------------------------------------------------------------------------\n\t// ----------------------------------------------- MODIFIERS ------------------------------------------------\n\t// ----------------------------------------------------------------------------------------------------------\n\n\t/**\n    *  Verify tangible is active and initialized\n    *\n    */\n\tmodifier _isActive() {\n\t\trequire(initialized, 'Tangible was not initialized');\n\t\trequire(!terminated, 'Tangible was terminated');\n\t\t_;\n\t}\n\n\t// ----------------------------------------------------------------------------------------------------------\n\t// ------------------------------------------------ INTERNAL ------------------------------------------------\n\t// ----------------------------------------------------------------------------------------------------------\n\n\t// Safe access to msg.sender\n\tfunction _msgSender() internal view virtual returns (address) {\n\t\treturn msg.sender;\n\t}\n\n\t// ----------------------------------------------------------------------------------------------------------\n\t// ------------------------------------------------- PUBLIC -------------------------------------------------\n\t// ----------------------------------------------------------------------------------------------------------\n\n\tfunction initalize() public returns (bool){\n\t\trequire(!initialized, 'Tangible already initialized');\n\t\trequire(tangibleAddress != address(0), 'Please set tangible address first');\n\t\trequire(owner == _msgSender(), 'Only owner can initalize tangibles');\n\n\t\t// start bidding\n\t\tinitialized = true;\n\n\t\treturn true;\n\t}\n\n\t// Set the tangible address (for emergency, if player wallet spoofed)\n\tfunction setTangible(address _tangibleAddress) public returns (bool) {\n\t\trequire(owner == msg.sender, 'Only owner can set Tangible');\n\n\t\ttangibleAddress = _tangibleAddress;\n\t\treturn true;\n\t}\n\n\n\t// Purchase\n\tfunction purchase(uint256 amount) public _isActive() returns (uint256){\n\t\trequire(amount > 1000000, 'Invalid amount provided');\n\n\t\t// check if enough escrow allowed\n\t\trequire(_ori.allowance(_msgSender(), address(this)) >= amount, 'Insufficient allowance provided');\n\n\t\t// tax\n\t\tuint256 tax = (amount * tangibleTax) / 100;\n\t\tuint256 contribution = tax / 2;\n\t\tuint256 invest = amount - tax;\n\n\t\t// invest in factor to real balance\n\t\tuint256 vInvest = invest;\n\n\t\tif (balance != 0){\n\t\t\tuint256 investorShare = (invest * 1000000) / (balance + amount - contribution);\n\t\t\tvInvest = (investorShare * virtualBalance) / (1000000 - investorShare);\n\t\t}\n\n\t\t// add to real balance\n\t\tbalance += amount - contribution;\n\t\tvirtualBalance += vInvest;\n\n\t\t// assign balance\n\t\tif (shares[_msgSender()] == 0){\n\t\t\tshares[_msgSender()] = vInvest;\n\t\t\tshareholders.push(_msgSender());\n\t\t} else {\n\t\t\tshares[_msgSender()] += vInvest;\n\t\t}\n\n\t\t// pull escrow\n\t\t_ori.transferFrom(_msgSender(), address(this), amount);\n\n\t\t// pay tangible\n\t\t_ori.transfer(tangibleAddress, contribution);\n\n\t\treturn vInvest;\n\t}\n\n\t// claim\n\tfunction claim() public _isActive() returns (uint256){\n\t\trequire(shares[_msgSender()] > 0, 'No shares');\n\n\t\t// remove stakes balance\n\t\tuint256 _balance = balanceOf(_msgSender());\n\t\tvirtualBalance -= shares[_msgSender()];\n\t\tbalance -= _balance;\n\n\t\t// transfer\n\t\t_ori.transfer(_msgSender(), _balance);\n\n\t\t// remove share\n\t\tshares[_msgSender()] = 0;\n\n\t\t// remove shareholder index\n\t\tuint256 index = 0;\n\t\tfor(uint256 i=0;i<shareholders.length;i++){\n\t\t\tif (shareholders[i] == _msgSender())\n\t\t\t\tindex = i;\n\t\t}\n\t\tshareholders[index] = shareholders[shareholders.length-1];\n\t\tshareholders.pop();\n\n\t\treturn _balance;\n\t}\n\n\t// Used to add value to tangible\n\tfunction disburse(uint256 amount) public _isActive() returns (bool){\n\t\trequire(amount > 0, 'Invalid amount provided');\n\n\t\t// check if enough escrow allowed\n\t\trequire(_ori.allowance(_msgSender(), address(this)) >= amount, 'Insufficient allowance provided');\n\n\t\t// pull escrow\n\t\t_ori.transferFrom(_msgSender(), address(this), amount);\n\t\tbalance += amount;\n\n\t\treturn true;\n\t}\n\n\t// Terminate this contract, and pay-out all remaining investors\n\tfunction terminate() public _isActive() returns (bool) {\n\t\trequire(owner == msg.sender, 'Only owner can terminate');\n\t\tterminated = true;\n\t\treturn true;\n\t}\n\n\t// Get shares of one investor\n\tfunction sharesOf(address _owner) public view returns (uint256) {\n\t\treturn shares[_owner] * 100000 / virtualBalance;\n\t}\n\n\t// Get shares of one investor\n\tfunction virtualSharesOf(address _owner) public view returns (uint256) {\n\t\treturn shares[_owner];\n\t}\n\n\tfunction balanceOf(address _owner) public view returns (uint256) {\n\t\treturn sharesOf(_owner) * balance / 100000;\n\t}\n\n\t// Get total balance of locked $ORI\n\tfunction getBalance() public view returns (uint256) {\n\t\treturn balance;\n\t}\n\tfunction getVirtualBalance() public view returns (uint256) {\n\t\treturn virtualBalance;\n\t}\n\n\t// Return current price\n\tfunction getPrice() public view returns (uint256) {\n\t\treturn balance / 100;\n\t}\n\n\t// Get shareholder addresses\n\tfunction getShareholders() public view returns (address[] memory) {\n\t\treturn shareholders;\n\t}\n\n}\n",
  "sourcePath": "/Users/michaelhasler/development/tst-basic/contracts/OriShare.sol",
  "compiler": {
    "name": "solc",
    "version": "0.8.4+commit.c7e474f2.Emscripten.clang"
  },
  "schemaVersion": "3.4.4",
  "updatedAt": "2022-03-31T12:08:24.444Z",
  "devdoc": {
    "kind": "dev",
    "methods": {},
    "version": 1
  },
  "userdoc": {
    "kind": "user",
    "methods": {},
    "version": 1
  }
}